:020000040800F2
:1000000000000220B1D60008EDCC0008EFCC0008BB
:10001000F1CC0008F3CC0008F5CC0008000000008B
:10002000000000000000000000000000513901083D
:10003000F7CC000800000000F139010895360108EE
:1000400001D7000801D7000801D7000801D7000830
:1000500001D7000801D70008F9CC000801D7000833
:1000600001D7000803CD00080DCD000801D7000816
:1000700001D7000801D7000801D7000801D7000800
:1000800001D7000801D7000801D7000801D70008F0
:1000900019CD000801D7000801D7000829CD0008B4
:1000A00001D7000801D7000801D7000801D70008D0
:1000B00001D7000801D7000801D7000801D70008C0
:1000C00001D7000801D7000801D7000801D70008B0
:1000D00001D7000801D7000801D7000805B10008C2
:1000E00001D7000801D7000801D7000801D7000890
:1000F00001D7000801D7000801D7000801D7000880
:1001000001D7000801D7000801D7000801D700086F
:1001100001D7000801D7000835CD000801D7000835
:1001200001D7000845CD0008416A010801D7000841
:1001300001D7000801D7000801D7000801D700083F
:1001400055CD000801D7000801D7000865CD00088B
:1001500001D7000875CD000885CD000801D700083B
:1001600001D7000801D7000801D7000801D700080F
:1001700001D7000801D7000801D7000800000000DF
:0801800001D7000801D70008B7
:1001C00081F0004102E000BF83F0004330B54FEA08
:1001D00041044FEA430594EA050F08BF90EA020F75
:1001E0001FBF54EA000C55EA020C7FEA645C7FEA08
:1001F000655C00F0E2804FEA5454D4EB5555B8BF2B
:100200006D420CDD2C4480EA020281EA030382EA9B
:10021000000083EA010180EA020281EA0303362D2D
:1002200088BF30BD11F0004F4FEA01314FF4801C00
:100230004CEA113102D0404261EB410113F0004F12
:100240004FEA03334CEA133302D0524263EB4303C9
:1002500094EA050F00F0A780A4F10104D5F1200E67
:100260000DDB02FA0EFC22FA05F2801841F10001C2
:1002700003FA0EF2801843FA05F359410EE0A5F196
:1002800020050EF1200E012A03FA0EFC28BF4CF0C7
:10029000020C43FA05F3C01851EBE37101F000457D
:1002A00007D54FF0000EDCF1000C7EEB00006EEB8A
:1002B0000101B1F5801F1BD3B1F5001F0CD3490814
:1002C0005FEA30004FEA3C0C04F101044FEA44526B
:1002D00012F5800F80F09A80BCF1004F08BF5FEAF2
:1002E000500C50F1000041EB045141EA050130BDD2
:1002F0005FEA4C0C404141EB0101013C28BFB1F5E4
:10030000801FE9D291F0000F04BF01460020B1FA2E
:1003100081F308BF2033A3F10B03B3F120020CDA01
:100320000C3208DD02F1140CC2F10C0201FA0CF0DF
:1003300021FA02F10CE002F11402D8BFC2F1200C44
:1003400001FA02F120FA0CFCDCBF41EA0C019040FA
:10035000E41AA2BF01EB0451294330BD6FEA040443
:100360001F3C1CDA0C340EDC04F11404C4F120022E
:1003700020FA04F001FA02F340EA030021FA04F340
:1003800045EA030130BDC4F10C04C4F1200220FA97
:1003900002F001FA04F340EA0300294630BD21FAD5
:1003A00004F0294630BD94F0000F83F4801306BF9B
:1003B00081F480110134013D4EE77FEA645C18BF8F
:1003C0007FEA655C29D094EA050F08BF90EA020F26
:1003D00005D054EA000C04BF1946104630BD91EA1E
:1003E000030F1EBF0021002030BD5FEA545C05D121
:1003F0004000494128BF41F0004130BD14F5800460
:100400003CBF01F5801130BD01F0004545F0FE41D3
:1004100041F470014FF0000030BD7FEA645C1ABF08
:10042000194610467FEA655C1CBF0B46024650EA3F
:10043000013406BF52EA033591EA030F41F400216B
:1004400030BD00BF90F0000F04BF0021704730B5F1
:100450004FF4806404F132044FF000054FF00001C6
:1004600050E700BF90F0000F04BF0021704730B587
:100470004FF4806404F1320410F0004548BF40425C
:100480004FF000013EE700BF42004FEAE2014FEAB1
:1004900031014FEA02701FBF12F07F4393F07F4F8C
:1004A00081F06051704732F07F4208BF704793F08F
:1004B0007F4F04BF41F40021704730B54FF46074A2
:1004C00001F0004521F000411CE700BF50EA0102A5
:1004D00008BF704730B54FF000050AE050EA01024E
:1004E00008BF704730B511F0004502D5404261EBBE
:1004F00041014FF4806404F132045FEA915C3FF4FF
:10050000D8AE4FF003025FEADC0C18BF03325FEA9B
:10051000DC0C18BF033202EBDC02C2F1200300FA4C
:1005200003FC20FA02F001FA03FE40EA0E0021FA71
:1005300002F11444BDE600BF53B94AB9002908BF0F
:1005400000281CBF4FF0FF314FF0FF3000F00CB817
:10055000ADF1080C6DE904CE17F0A0F8DDF804E069
:10056000DDE9022304B07047704700BF002200F0AD
:1005700001B800BF70B4840746D04C1E002941D09A
:10058000D5B2034602E0611EE4B30C4603F8015BFA
:100590009907F8D1032C2ED9D5B245EA05250F2CA1
:1005A00045EA054519D9264603F11001103E0F2EE4
:1005B00041F8105C41F80C5C41F8085C41F8045CBF
:1005C00001F11001F2D8A4F1100121F00F0104F0A3
:1005D0000F041031032C0B440DD91E46214604395B
:1005E000032946F8045BFAD8211F21F003010431E6
:1005F0000B4404F003042CB1D2B21C4403F8012BC9
:10060000A342FBD170BC70470C460346C2E7000012
:10061000002301461A46184602F04EBA014B1868EC
:10062000704700BF1000002038B5084B084D5B1B19
:100630009C1007D0043B1D44013C55F804399847F1
:10064000002CF9D1BDE8384017F08EB9F8920108B6
:10065000F492010870B50D4E0D4D761BB61006D004
:10066000002455F8043B01349847A642F9D1094EBD
:10067000094D761B17F072F9B61006D0002455F814
:10068000043B01349847A642F9D170BDEC920108B1
:10069000EC920108F4920108EC9201082DE9F04F68
:1006A00001F10B06162E83B0054624D8102900F25E
:1006B000A88000F097FB102618224FF0020CB54FCF
:1006C0003A44A2F1080354689C4200F0A780636892
:1006D000E268A16823F003032344CA6091605A686A
:1006E00042F0010228465A60083400F081FB20469F
:1006F00003B0BDE8F08F36F0070600F18280B1420A
:100700007FD800F06FFBB6F5FC7FC0F09981730ACB
:100710007ED0042B00F26581B30903F1390C03F19B
:1007200038044FEACC039B4F3B44A3F108005B68BD
:10073000984206D10CE0002980F21C81DB689842C7
:1007400006D05A6822F00302911B0F29F3DDA4465C
:100750003C69DFF8448244456CD0636823F0030EA3
:10076000AEEB06030F2B00F37C81002BC7E9048856
:1007700080F26B81BEF5007F80F012814FEADE03CC
:10078000796801334FEA5E1E012202FA0EF257F831
:100790003300A0600A4307EBC3010839E1607A60C7
:1007A00047F83340C4604FEAAC03012098409042C0
:1007B00047D8104206D12CF0030C400010420CF137
:1007C000040CFAD007EBCC0A5346E146D9680EE098
:1007D0004A6822F00302A2EB060EBEF10F0F0C4690
:1007E000C96800F30B81BEF1000F80F21C818B42BF
:1007F000EED109F1010919F0030F03F10803E5D166
:1008000066E100240C2320462B6003B0BDE8F08F86
:100810004FF400734FF0400C3F2484E7D468A242A9
:1008200008BF0CF1020C7FF452AF3C69DFF868811D
:10083000444592D17A684FEAAC0301209840904237
:10084000B7D9BC68636823F00308464503D8A8EB12
:1008500006030F2B7EDCDFF84491D7F80824D9F883
:1008600000300132334404EB080A00F0478103F5FD
:1008700080530F3323F47F6B2BF00F0B5946284620
:1008800000F028FB411C024600F00681824500F280
:100890000181D9F804105944C9F804100B4600F03E
:1008A0006581D7F8081401311BBFA2EB0A0A534433
:1008B000C7F80824C9F8043012F0070300F02A81B1
:1008C000C3F108010A44C3F5805193440831A1EBF8
:1008D0000B01C1F30B0A514628460192009300F028
:1008E000F9FA421CDDE9003200F06781831A03EB5C
:1008F0000A0BD9F80400BA604BF001030AEB0001BF
:10090000BC425360C9F8041000F03C81B8F10F0FED
:1009100040F23A816368A8F10C0020F0070003F070
:100920000103034363604FF0050C23180F28C3E94C
:1009300001CC00F2498153681446D9F82C208A4230
:10094000D9F8302038BFC9F82C108A4238BFC9F80E
:100950003010A3E0A21943F0010346F001066660DF
:100960002846BA60536000F043FA0834204603B0CA
:10097000BDE8F08FD3E902411A44E1608C60516810
:1009800041F001012846516003F1080400F030FAFB
:10099000ADE600BF4004002048040020680B0020A2
:1009A000BEF5206F4FEA5E226DD3142A00F2C48098
:1009B00002F15C03DB005B32F918FB5808399942FD
:1009C00000F09F805A6822F00302724502D99B68AA
:1009D0009942F7D1D9687A68C4E902318C60DC6049
:1009E000E1E6142B68D9542B00F2AF80330B03F1EE
:1009F0006F0C03F16E044FEACC0394E62846A56819
:100A0000A31946F001066660E9608D604EF00101B1
:100A1000C7E90433C3E90288596044F802E000F0F2
:100A2000E7F9083463E622442846536843F001039B
:100A3000536054F8083FD9608B6000F0D9F956E64E
:100A40004FEAD60C06F1080239E6A6442846DEF83D
:100A5000043043F00103CEF80430083400F0C8F944
:100A600045E6A21943F0010146F0010666602846FA
:100A7000C7E90422C2E90288516044F80E3000F050
:100A8000B7F9083433E64FEA9E1202F13903DB006E
:100A9000383291E7BC4263D0BC68636823F0030B33
:100AA0005E45ABEB060302D80F2B3FF753AF28464A
:100AB00000F09EF900241AE603F15C0C03F15B04DC
:100AC0004FEACC032FE65AF80839534540F09B8093
:100AD0001CF0030F0CF1FF3CF5D17B6823EA000307
:100AE0007B60400098423FF6ACAE18B9A9E64000E2
:100AF00009F104091842FAD0CC4663E603F1100B61
:100B0000BCE690104FF0010E7A680EFA00F0024336
:100B10007A6061E702EB0B014942C1F30B0A5146CF
:100B200028460193009200F0D5F9431CDDE900232B
:100B30007FF4DCAE9A46DCE6542A28D84FEA1E320F
:100B400002F16F03DB006E3236E7B3F5AA7F28D8D7
:100B5000F30B03F1780C03F177044FEACC03E2E5E1
:100B6000D9F804305B44C9F804309AE6CAF30B00A4
:100B700000287FF496AEBC6808EB0B0343F001033A
:100B80006360DAE61446D8E6012353608FE7B2F5D6
:100B9000AA7F23D84FEADE3202F17803DB007732F6
:100BA0000AE740F25452934223D8B30C03F17D0C70
:100BB00003F17C044FEACC03B5E5083B9B44ABEB67
:100BC000020B4FF0000A94E604F10801284603F0F6
:100BD0000DF8BC68D9F804106368AEE640F25453CF
:100BE0009A420CD84FEA9E4202F17D03DB007C3230
:100BF000E2E64FF47E734FF07F0C7E2493E54FF4D2
:100C00007E737E22D8E67B686BE700BF844641EAAC
:100C1000000313F003036DD1403A41D351F8043B74
:100C200040F8043B51F8043B40F8043B51F8043BC6
:100C300040F8043B51F8043B40F8043B51F8043BB6
:100C400040F8043B51F8043B40F8043B51F8043BA6
:100C500040F8043B51F8043B40F8043B51F8043B96
:100C600040F8043B51F8043B40F8043B51F8043B86
:100C700040F8043B51F8043B40F8043B51F8043B76
:100C800040F8043B51F8043B40F8043B51F8043B66
:100C900040F8043B51F8043B40F8043B403ABDD2D5
:100CA000303211D351F8043B40F8043B51F8043B77
:100CB00040F8043B51F8043B40F8043B51F8043B36
:100CC00040F8043B103AEDD20C3205D351F8043B06
:100CD00040F8043B043AF9D2043208D0D2071CBFD2
:100CE00011F8013B00F8013B01D30B8803806046FB
:100CF000704700BF082A13D38B078DD010F0030371
:100D00008AD0C3F10403D21ADB071CBF11F8013BE0
:100D100000F8013B80D331F8023B20F8023B7BE72F
:100D2000043AD9D3013A11F8013B00F8013BF9D25A
:100D30000B7803704B7843708B78837060467047F4
:100D4000830730B548D0541E002A3FD0CAB20346AC
:100D500001E0013C3AD303F8012B9D07F9D1032CA4
:100D60002DD9CDB245EA05250F2C45EA054536D9E2
:100D7000A4F1100222F00F0C03F1200EE6444FEA1A
:100D8000121C03F1100242E9045542E902551032E7
:100D90007245F8D10CF1010214F00C0F03EB0212B2
:100DA00004F00F0C13D0ACF1040323F0030304335D
:100DB000134442F8045B9342FBD10CF003042CB1C2
:100DC000CAB21C4403F8012B9C42FBD130BD6446DF
:100DD0001346002CF4D1F9E703461446BFE71A4640
:100DE000A446E0E7014803F011B800BFB00B0020B3
:100DF000014803F013B800BFB00B00202DE9F0410B
:100E00000E680C460546BEB137688FB1D7F8008032
:100E1000B8F1000F08D0D8F8001009B1FFF7EEFFC5
:100E20004146284602F0E2FE3946284602F0DEFE40
:100E30003146284602F0DAFE21462846BDE8F04158
:100E400002F0D4BE224B1B68834240D0C16C70B507
:100E5000054681B100268C593CB1214624682846BC
:100E600002F0C4FE002CF8D1E96C0436802EF2D1D9
:100E7000284602F0BBFE296C11B1284602F0B6FEEE
:100E8000D5F8484154B105F5A676B44206D02146BE
:100E90002468284602F0AAFEA642F8D1696D11B175
:100EA000284602F0A3FEAB6B83B1EB6B2846984754
:100EB000D5F8E04254B1216811B12846FFF79EFFF2
:100EC00021462846BDE8704002F090BE70BD7047D4
:100ED0001000002038B5074D0022044608462A605D
:100EE0000BF092FF431C00D038BD2B68002BFBD0C9
:100EF000236038BD9C0B00200CB410B59CB01EAB19
:100F00006FF00044CDE906140291084953F8042B10
:100F1000059102A90193049400F0A2F8029B00221B
:100F20001A701CB0BDE8104002B070470802FFFF05
:100F30000EB410B59DB06FF000411FABCDE90601B6
:100F40000491094953F8042B0290084C0868019356
:100F500002A9059400F084F8029B00221A701DB0CB
:100F6000BDE8104003B07047100000200802FFFFEA
:100F70000000000000000000000000000000000071
:100F800090F800F06DE9024520F007016FF0000CC9
:100F900010F0070491F820F040F049804FF0000471
:100FA0006FF00700D1E9002391F840F000F108004C
:100FB00082FA4CF2A4FA8CF283FA4CF3A2FA8CF384
:100FC0004BBBD1E9022382FA4CF200F10800A4FAEB
:100FD0008CF283FA4CF3A2FA8CF3E3B9D1E904233F
:100FE00082FA4CF200F10800A4FA8CF283FA4CF376
:100FF000A2FA8CF37BB9D1E9062301F1200182FA30
:101000004CF200F10800A4FA8CF283FA4CF3A2FA35
:101010008CF3002BC6D0002A04BF04301A4612BA43
:10102000B2FA82F2FDE8024500EBD2007047D1E946
:10103000002304F00305C4F100004FEAC50514F0D5
:10104000040F91F840F00CFA05F562EA05021CBFA6
:1010500063EA050362464FF00004A9E700000000C0
:101060002DE9F04F2DED0A8BCFB00C460AEE101A89
:10107000914608930AEE900A02F0B6FE03681293B6
:101080001846FFF77DFFA3891190180603D5236941
:10109000002B00F09B874D469FEDA17B2B78002411
:1010A00025AACDE92344CDE91344CDE916448DEDBD
:1010B0000E7B1AEE90BA0D942292904615940494E9
:1010C000002B00F0DA81A94604E019F8013F002B5B
:1010D00000F00581252BF8D1B9EB050640F003811E
:1010E00099F80030002B00F0C88100234FF0FF3248
:1010F00099F801708DF86B30059309F1010903929D
:101100009A462B24202109F10109A7F120035A2B2B
:1011100000F22A81DFE813F04303280128013E038F
:101120002801280128011E032801280113030E03AA
:1011300028010903EF022801EA025B005B005B0063
:101140005B005B005B005B005B005B00280128012B
:1011500028012801280128012801C0012801600276
:101160006F00C001C001C001280128012801280129
:10117000A10228012801B0002801280128016A02E3
:1011800028018F022801280145072801280128018C
:1011900028012801280128012801C0012801600236
:1011A0007100C001C001C001DD0271006A002801A8
:1011B000D0022801B802B200A6026A0028016A0221
:1011C0006C00200728012801240728016C00A7F1E2
:1011D0003003002219F8017B02EB820203EB42028A
:1011E000A7F13003092BF5D905928EE74AF0200AC2
:1011F00099F8007087E74AF0100A1AF0200F00F003
:10120000D981089B073323F007031A465B6852F81D
:10121000084B08921E46002BC0F28C85039B0133BD
:1012200001F058802AF0800354EA0602029300F08D
:1012300019850A2C76F1000380F0B287303401233F
:10124000DDF808A08DF8374106930DF237150399A4
:1012500006989DF86B2081424FF00003B8BF01460D
:10126000079302910B9310930C93002A00F08D804A
:10127000029B0133029388E04AF0100A1AF020061C
:1012800000F08881089B073323F007035E6853F85A
:10129000084B08932AF480630293002300228DF800
:1012A0006B20039A1146013100F09082029921F0DF
:1012B000800A54EA060140F08782002A41F0468005
:1012C000002B40F0D484029B13F00103069300F03E
:1012D0005B8530238DF837310DF23715B7E7B9EB61
:1012E000050600F0CA80249B33442493239B0133DA
:1012F000072BC8E90056239305DC08F10808049B76
:1013000033440493ECE61AEE101A22AA584603F06E
:1013100087FBC8B90DF19408F1E700BFAFF3008077
:1013200000000000000000001AEE101A22AA584621
:1013300003F076FB002800F09180079B23B107990A
:101340001AEE900A02F052FC1AEE103A9B8913F042
:10135000400F049B18BF4FF0FF33049304984FB025
:10136000BDEC0A8BBDE8F08F002F00F086800022D4
:101370008DF8D4708DF86B200123CDE906320293ED
:1013800003920B9210920C9235AD1AF0020309935E
:1013900002D0029B023302931AF08403249C0A9326
:1013A00005D1059B02995E1A002E00F3BA808AB11E
:1013B000239A0DF16B0101320134C8F80010072A9D
:1013C0004FF0010124942392C8F8041000F35F83C6
:1013D00008F10808099B83B1239B1BAA013302343F
:1013E000C8F80020072B4FF0020224942393C8F87A
:1013F000042000F3598308F108080A9B802B00F0B1
:101400006F82039B069A9E1A002E00F3B0821AF494
:10141000807F40F00B82069BC8F804301C44239B5D
:10142000C8F800500133072B2494239300F3228340
:1014300008F108081AF0040F05D0059B029A9D1ABE
:10144000002D00F33E83DDE9043202998A42ACBFED
:101450009B185B180493002C7FF466AF0023239342
:10146000079B1BB10799584602F0C0FB0DF1940889
:101470004D462B78002B7FF426AE249B002B3FF4A7
:1014800063AF1AEE104A1AEE101A1AEE900A22AA48
:1014900003F0C6FAA3895AE7089B073323F0070332
:1014A000B3EC027B52EC171B089322F000430BEEC7
:1014B000903AB0EE47BAB0EE4B9AF0EE6B9ABD4B55
:1014C00051EC190B4FF0FF328DED0E7B07F068F9F0
:1014D000002840F07684B74B51EC190B4FF0FF32E7
:1014E00007F040F9002840F06C84DDE90E0100228D
:1014F000002307F02DF9002840F0D9879DF86B20D4
:10150000AD4DAE4B2AF0800A0321472FC8BF1D46C0
:10151000002307930291069103930B9310930C936E
:10152000A3E6102E239A24DD214610231AEE104A3A
:1015300004E0103E102E08F1080819DD0132A04821
:101540001031072AC8E90003CDE92321F1DD22AAE1
:10155000214658460DF1940803F062FA00287FF402
:10156000ECAE103E102EDDE923214FF01003E5DC38
:101570000C460132924BC8F804603444072ACDE986
:101580002324C8F8003000F350869DF86B2008F142
:1015900008080CE708991AF0100201F1040340F062
:1015A00000841AF0400100F03E87089908930C88E7
:1015B00016466FE6089A1AF0100F02F1040340F085
:1015C000EA831AF0400F089A00F0E183B2F9004074
:1015D0000893E61733461EE6089B002253F8041BC7
:1015E0008DF86B208DF8D4100893C5E6089C54F84C
:1015F000045B00268DF86B60002D00F0B386039A23
:101600001346013300F015853146284602F008FCE8
:101610000790002801F04880079A0396511B069115
:1016200021EAE1719DF86B200894029107960B96D0
:1016300010960C9619E64AF010030293029B13F0E1
:10164000200600F06483089B073323F007035E68DD
:1016500053F8084B0893012320E699F800704AF0EC
:10166000080A50E5089B53F8044B089330234AF0CE
:10167000020278278DF86C30524B139302928DF84A
:101680006D700026022309E6089A1AF0200F52F81E
:10169000043B089240F089831AF0100F40F05D86F9
:1016A0001AF0400F40F020871AF4007F00F05586B2
:1016B000049A1A704D46DCE699F800706C2F03BF4F
:1016C00099F801704AF0200A09F101094AF0100A5C
:1016D00019E599F80070682F03BF99F801704AF472
:1016E000007A09F101094AF0400A0CE599F8007006
:1016F0004AF0800A07E54A4612F8017B2A2F01F0DA
:10170000B181A7F13003092B914698BF002200F266
:10171000D78719F8017B02EB820203EB4202A7F1A3
:101720003003092BF5D90392EFE499F800704AF0E1
:10173000040AE8E499F800708DF86B40E3E4089B34
:1017400099F8007053F8042B0592002AC0F22C84FB
:101750000893D8E4584602F047FB436816931846AE
:10176000FFF70EFC17900646584602F03DFB8368D3
:1017700015932021002E3FF43BAD159B99F8007086
:10178000002B3FF4C0AC1B78002B3FF4BCAC4AF4F8
:10179000806AB8E499F800704AF0010AB3E49DF851
:1017A0006B3099F80070002B7FF4ADAC8DF86B10A6
:1017B000A9E400BFFFFFEF7FB8910108BC910108C9
:1017C000B0840108C8910108CDF808A0012B3FF4AE
:1017D00030AD022B4EAD12D1139A04F00F03240941
:1017E000D35C05F8013D44EA0674360954EA060361
:1017F000F3D14EAB5B1BDDF808A0069327E504F0A0
:101800000703E40844EA4674F608303354EA060154
:101810002A4605F8013DF2D102990846C00700F1B9
:1018200012824EAB5B1B8A46069310E5652F40F390
:10183000D580DDE90E010022002306F07FFF00289D
:1018400000F08081239BBC4AC8F80020013301349A
:101850000122072B24942393C8F8042000F33E852B
:1018600008F108081C9B0D9A934280F28882119B14
:10187000129A1C44C8E90023239B24940133072BAC
:10188000239300F3968308F108080D9B5D1E002D3D
:101890007FF7D0AD102D239AA84B40F32F851F461C
:1018A000102623461AEE104A05E008F10808103DFC
:1018B000102D40F3218501321033072AC8E9007644
:1018C000CDE92323F1DD22AA2146584603F0A8F8EA
:1018D00000287FF432ADDDE923230DF19408E6E71B
:1018E000059B029A9E1A002E7FF78BAD102E239A2D
:1018F000924B29DD1946099523461AEE105A0C46DB
:1019000004E0103E102E08F1080819DD01321033F2
:101910001021072ACDE92323C8F80040C8F8041095
:10192000EFDD22AA294658460DF1940803F078F815
:1019300000287FF402AD103E102EDDE92323E5DC04
:101940002146099D1C460B4601323444072ACDE945
:101950002324C8F80030C8F8046000F3E984039B2E
:10196000069A9E1A002E08F108087FF750AD102E37
:10197000239A724B24DD21461C4643461AEE108AF8
:1019800004E0103E102E03F1080316DD0132103181
:101990001020072ACDE923211C605860F1DD22AA1E
:1019A0004146584603F03CF800287FF4C6AC103E90
:1019B000102EDDE9232125ABE8DC984623460C46B2
:1019C00001323444072ACDE92324C8F80030C8F88E
:1019D000046000F38E8108F1080818E5239B0D9A36
:1019E000C8F8005001345E1C012ACDE9236408F1D7
:1019F000080740F342810123072EC8F8043000F3A2
:101A0000A481119B129A01361C44072EC7E90023BA
:101A1000CDE9236400F3A68108370D9A731C013ABF
:101A2000099303930692DDE90E010022002307F1DA
:101A3000080806F083FE002840F02E81069A039BDA
:101A40007A6001351444072B3D602494239300F3FE
:101A5000968307F11003B21C474603929846149BE5
:101A6000039A7B601C44072A1EAB249423923B609C
:101A70007FF7E0AC1AEE101A22AA584602F0D0FF07
:101A800000287FF45AAC249C0DF19408D2E41AEE9D
:101A9000101A22AA584602F0C3FF00287FF44DAC6A
:101AA000249C0DF1940895E41AEE101A22AA5846C7
:101AB00002F0B6FF00287FF440AC249C0DF194089E
:101AC0009BE4102D239B20DD1AEE107A102604E0F3
:101AD000103D102D08F1080817DD0133184A1034A5
:101AE000072BC8E90026CDE92334F1DD22AA3946C7
:101AF00058460DF1940802F093FF00287FF41DACC6
:101B0000103D102DDDE92334E7DC01330C4AC8F821
:101B100004502C44072BCDE92334C8F800207FF76C
:101B200092AC1AEE101A22AA584602F079FF002849
:101B30007FF403AC249C86E4F8910108C08401087A
:101B4000B08401081C9B002B40F38683DDE90C3236
:101B50009342A8BF1346002B1F460BDD1C44C8E967
:101B60000053239B24940133072B239300F32E85EA
:101B700008F108080C9B002FA8BFDB1B002B1E469A
:101B800000F332820C9B1AF4806F2B44069340F0D2
:101B900061821C9B0D9A934203DB1AF0010F00F047
:101BA0009984119A12991444C8E90012239A249432
:101BB0000132072A239200F3258508F108080D9ABF
:101BC0000699AE18761AD51AAE42A8BF2E46002E38
:101BD0000DDD239BC8F8001001333444072BC8F8EF
:101BE00004602494239300F36F8508F10808002E05
:101BF000A8BFAD1B002D7FF71DAC102D239ABC4B49
:101C000040F37C831F46102623461AEE104A05E057
:101C100008F10808103D102D40F36E830132103397
:101C2000072AC8E90076CDE92323F1DD22AA21465F
:101C3000584602F0F5FE00287FF47FABDDE9232350
:101C40000DF19408E6E7302B3FF4D3AD3023023A90
:101C500005F8013C4EAB9B1ADDF808A0069315462B
:101C6000FFF7F5BA039A002A7FF4E8AA9A46002300
:101C7000039306934EADFFF7EABA1AF0010F7FF413
:101C8000BAAE0122072EC8F8042000F3788202338E
:101C9000039308F11008E2E6069B002B7FF7DFAE06
:101CA000102B194640F3CA86914B099E22461025F7
:101CB0001C4688463B461AEE107A07E00833A8F126
:101CC0001008B8F1100F40F3948301361032072E3C
:101CD000C3E90045CDE92362F0DD22AA3946584622
:101CE00002F09EFE00287FF428ABDDE9236225ABDD
:101CF000E5E71AEE101A22AA584602F091FE0028D3
:101D00007FF41BAB249C0DF19408FFF780BB029A73
:101D1000089912F0100201F104034DD1029911F05B
:101D2000400100F09383089908930C88164601231C
:101D3000FFF7B4BA2D2364428DF86B3066EB46068C
:101D4000CDF808A00123FFF7ACBA1AEE101A22AAA8
:101D5000584602F065FE00287FF4EFAADDE923640F
:101D600025AF4EE61AEE101A22AA584602F058FE87
:101D700000287FF4E2AADDE9236425AF4DE61AF0DE
:101D8000010F3FF457AB72E54EADFFF760BA1AF49E
:101D9000007F40F0AE8314680893E6173346FFF7E0
:101DA0003ABA0C680893FFF775BA049A1A60D2170A
:101DB0005A604D46FFF75DBB08930C680123FFF79F
:101DC0006DBADDE90E0102460B4606F0E9FC00287B
:101DD00040F0B885612F00F09485412F00F08F848A
:101DE000039A27F02003511C029300F0A683472B8F
:101DF00004D1002A134608BF01230393DDE90E0135
:101E00004AF480720029CDF824A04FF000039246D6
:101E1000C0F2178541EC180B0A930793029BB0EEB2
:101E2000480AF0EE680A462B00F0FB83452B00F0D1
:101E3000338520AB01931DAB0093039A1CAB0221A9
:101E4000584600F011FF029B472B054640F03086B4
:101E5000099BDB0700F10185209B5B1B0D931C9BFD
:101E60000C93029B472B00F08283029B462B00F0D1
:101E7000028402990C9BFAB2412908BF0F3203F188
:101E8000FF3306BFD2B201210021002B1C93B8BF43
:101E90000C9B8DF87820BABFC3F101032D222B22B1
:101EA000092B8DF8792040F35C850DF18704114EE4
:101EB0002246104686FB0321DA17C2EBA10202EB91
:101EC0008201A3EB4101303100F8011C194663295E
:101ED000134600F1FF32ECDC3033D9B2831E9C4252
:101EE00002F8011C40F2D78513460DF17A0205E095
:101EF000C08401086766666613F8011B02F8011BBF
:101F00009C42F9D10DF189030DF17A021B1A134499
:101F10001EAA9B1A14930D9B149A012B1A44069225
:101F200040F36D85069B119A13440693099B069A0C
:101F300023F4806343F4807A22EAE27200230B9355
:101F4000029210930C930A9B002B40F038839DF86B
:101F50006B200393FFF789B9CDF808A0FFF76EBB9C
:101F6000BA4B13931AF0200600F0F380089B073356
:101F700023F007035E6853F8084B08931AF0010F2B
:101F800009D054EA060306D030238DF86D704AF06C
:101F9000020A8DF86C302AF4806302930223FFF763
:101FA0007DB9AB4B1393DDE7524205920893FFF7DF
:101FB000BEBB1AEE101A22AA584602F031FD0028C4
:101FC0007FF4BBA9249C0DF194085EE41AEE900AFC
:101FD0004021FEF763FB20602061002800F05F8550
:101FE00040236361FFF757B8102E239A994B40F3B3
:101FF0003C82214610271C4643461AEE108A04E014
:102000000833103E102E40F32D8201321031072A82
:10201000C3E90047CDE92321F2DD22AA4146584613
:1020200002F0FEFC00287FF488A9DDE9232125AB1E
:10203000E7E7284603960894FEF7A2FF20EAE0713E
:102040009DF86B200690029107960B9610960C96C1
:10205000FFF70BB90D9B069ECDF818A0DDF840A048
:10206000CDF82490EB1803934246159FDDF85C9061
:102070000B9B0A951AEE108AA446BAF1000F30D0D5
:1020800093BB013F0AF1FF3A169BC2E90039239B3B
:102090000133CC44072BCDF890C0239363DC083286
:1020A000039B38789B1B8342A8BF0346002B1C462A
:1020B0000CDD239801309C440728C2E90063CDF869
:1020C00090C0239000F3278138780832002CACBFF1
:1020D000051B0546002D0BDC06440B9BBAF1000FD7
:1020E000CED1002B00F032820B9B013B0B93CBE750
:1020F000102D23981FDD1024634604E0103D102DA1
:1021000002F1080216DD0130524910330728C2E9F6
:102110000014CDE92303F1DD22AA4146584602F01E
:102120007FFC00287FF409A9103D102DDDE9230371
:1021300025AAE8DC9C460130464B5560AC44072894
:10214000CDE9230C136000F34F823878083206443F
:10215000C3E708991AF0100201F1040300F0B180FE
:102160000C6808930AE722AA4146584602F058FC38
:1021700000287FF4E2A8DDF890C025AA90E71AEEC7
:10218000101A22AA584602F04BFC00287FF4D5A86A
:10219000239B249C013303930DF19C0825AF5EE43F
:1021A000029B069703F48063002209EE10BACDF873
:1021B0001C80DDF854B00DF59C7A174698460CE06B
:1021C0000023204631460A22FEF7B6F90A2C76F1A2
:1021D00000031CD304460E46AA4620460A220023CA
:1021E0003146FEF7A9F930320AF1FF3501370AF816
:1021F000012CB8F1000FE3D09BF800309F42DFD1F3
:10220000FF2FDDD00A2C76F1000380F03C814EAB2D
:102210005B1BCDF854B00D9719EE10BADDE90678C6
:10222000DDF808A00693FFF712B81AEE101A22AADA
:10223000584602F0F5FB00287FF47FA89DF86B203C
:10224000249C0DF19408FFF7B2B800BFC8910108B3
:10225000DC910108C0840108239AB949C8F800102C
:10226000013201340121072A24942392C8F8041072
:1022700000F3228108F10808002B40F084800D9AB9
:102280000AF0010313433FF4D5A8119B129AC8E941
:102290000023239A01321C44072A2494239200F33A
:1022A0002F8108F108080D9BC8F8005001321C442A
:1022B000072ACDE92324C8F804307FF7B9A8FFF72F
:1022C000D9BB1AF0400100F0B880089908930C8837
:1022D000164653E6CDF808A0FEF7ABBF1AEE101A6B
:1022E00022AA584602F09CFB00287FF426A8249CD2
:1022F0000DF19408FFF7B6BA1C463B4601322C4458
:10230000072AC8F80030C8F80450CDE923247FF725
:102310008FA8FFF7AFBB22AA4146584602F080FBC8
:1023200000287FF40AA83878DDF890C025AACDE609
:102330001AEE101A22AA584602F072FB00287EF408
:10234000FCAF249C0DF19408FFF75BB8012BCDF88E
:1023500008A07FF43EAAFEF771BF049A1A604D46AA
:10236000FFF787B8039B0795062B294628BF06234E
:1023700003952A460293734D089406930B9110918E
:102380000C91FEF772BF119A12991444C8E9001219
:10239000239A24940132072A239200F3B18008F192
:1023A0000808002BBFF67FAF5E421033664B80F209
:1023B0005A82214610271C4643461AEE108A04E032
:1023C0000833103E102E40F34B8201321031072AA1
:1023D000C3E90047CDE92321F2DD22AA4146584650
:1023E00002F01EFB00287EF4A8AFDDE9232125AB17
:1023F000E7E71F4623461446721C0392CDF8188067
:1024000007F108023B60069B7B601C44039B2494FD
:10241000072B23933FF7B3AE0133039302F1080870
:102420001746FFF71CBB089A08931AF4007616BFEC
:10243000147814680E46FEF72DBF089A08931AF414
:10244000007616BF147814680E4697E5029A12F4C7
:102450000076089A089316BF147814680E46012374
:10246000FEF71CBF984623460C4601323444072A27
:10247000CDE92324C8F80030C8F804604FDC08F127
:102480000808FFF77FBB179B1699ED1A1A462846D6
:1024900002F094FA9BF801300BB10BF1010B2046CE
:1024A00031460A2200230027FEF746F892E62D2245
:1024B0008DF86B20FFF724B81AEE101A22AA58469E
:1024C00002F0AEFA00287EF438AF1C9B249C0DF17C
:1024D0009408D1E60D9A0699AE18761AD51AAE422E
:1024E000A8BF2E46FFF783BB049A1A804D46FEF71D
:1024F000C0BF92F900400893E6173346FEF78BBE43
:102500001AEE101A22AA584602F08AFA00287EF41F
:1025100014AFDDE923241C9B0DF1940841E71AEE6A
:10252000101A22AA584602F07BFA00287EF405AF62
:10253000249C0DF19408FFF725BB062303935DE46B
:10254000F8910108F0910108C08401080A9D0D9BD3
:10255000DDF818A0DDF824901597EB189E42904600
:10256000324628BF1A4664460692FFF712BB0C9B00
:10257000DA1C02DB039A934204DD023F27F02003BA
:10258000029376E40D9B19460C9B994200F3AD80B3
:10259000099AD60740F11C82119A13440693099BAD
:1025A0005C0503D50C9B002B00F3EA81069B23EA14
:1025B000E3730293672700230B931093C3E42D2248
:1025C00000238DF86B200393FEF752BE1AEE101A0B
:1025D00022AA584602F024FA00287EF4AEAE249CCB
:1025E0000DF19408FFF7C6BA22AA4146584602F0F8
:1025F00017FA00287EF4A1AE3878DDF890C025AA3D
:1026000006446AE51AEE101A22AA584602F008FAA1
:1026100000287EF492AE1C9B249C0DF19408FFF7D9
:10262000CEBA20AB01931DAB0093039A1CAB0321E0
:10263000584600F019FB0378302B054600F0D18195
:102640001C9B039A1344EC1851EC180B0022002336
:1026500006F074F810B12346FFF7FFBB209BA3429E
:10266000BFF4FBAB30215A1C20921970209B9C4276
:10267000F9D8FFF7F2BB099B0C99039A03F0010309
:10268000002943EA020340F3C981002B40F0A381F3
:102690000C9B06936627099B5A0500F17281069BE5
:1026A00023EAE373029386E7039B9DF86B2008946B
:1026B0000293069303900B9010900C90FEF7D5BDFB
:1026C00000230393FEF721BD1AEE101A22AA5846E2
:1026D00002F0A6F900287EF430AE1C9D0D9B249CD0
:1026E0005D1B0DF19408FFF782BA0D9B119A9A18A1
:1026F0000C9B0692002B40F388816727CBE73023A1
:102700008DF86C3058238DF86D304AF00203099330
:10271000039B632B00F3EB800023079335AD0F9BE6
:1027200027F02002002B4AF4817A0292C0F28A80BC
:102730009DED0E8B00230A93612F00F0E780412F5F
:102740007FF46CABB0EE480AF0EE680A1CA802F009
:10275000FFF800224FF07F5351EC100B05F086FD7F
:1027600002460B4643EC192B0022002305F0E6FF3E
:1027700008B101231C93B44B0693039BCDF86080F2
:10278000CDE90C790CEE10BA59EC198BDDF818B0C4
:10279000CDF840A05E1E2C46199505E000220023CE
:1027A000013E05F0CBFFE0B9A84B00224046494668
:1027B00005F05CFD8946804606F008F80546FDF701
:1027C00051FE0B46024649464046FDF7FDFC1BF80C
:1027D0000530A24604F8013B731C37468046894603
:1027E000DCD149EC198B9A4BCDF82CA051EC190B8C
:1027F00000223E46DDF840A00C9FDDF860800C957D
:10280000DDF83490199D1CEE10BA05F0BFFF0028CA
:1028100051D151EC190B8E4B002205F08FFF10B1F6
:102820000C9BD90747D4002E334606DB01332344E3
:10283000302204F8012BA342FBD1631B0D93FFF759
:102840000EBB0793DDE90E3408EE103A04F10043A5
:1028500008EE903A2D230A936EE7039BEC18F3E6FB
:10286000984623460C4601323444072ACDE92324F6
:10287000C8F80030C8F804607FF713AD1AEE101ADC
:1028800022AA584602F0CCF800287EF456ADDDE9C5
:1028900023240DF1940806E5039B5C1C20AB0193F7
:1028A0001DAB009322461CAB0221584600F0DCF918
:1028B00005462C44C8E60B9B2093069B14F8012C7C
:1028C000D97B8A42234609D1302003F8010C209B92
:1028D0005A1E209213F8012C9142F6D0392A0BBFD0
:1028E000069A0132927AD2B203F8012CA5E7591C5C
:1028F0005846FDF7D3FE0546002800F0BF8007903C
:102900000DE730238DF86C307823FCE61CA8B0EE80
:10291000480AF0EE680A02F01BF800224FF07F53DD
:1029200051EC100B05F0A2FC02460B4643EC192BB0
:102930000022002305F002FF08B101231C93454B40
:1029400006931AE70F9B444D002BB4BF2D229DF830
:102950006B20424BB8BF8DF86B202AF0800AFEF73F
:10296000D3BD00296DD130228DF87A200DF17B0284
:10297000303302F8013B1EABD31A1493FFF7CBBAE6
:10298000672715990B78FF2B00F0818000240C9AA3
:10299000204603E001300131FF2B08D0934206DAD4
:1029A000D21A4B78002BF5D10B780134F4E715914E
:1029B0000C9210900B940B9A109B17991344069A43
:1029C00001FB0323069323EAE3730293FFF7BBBAE9
:1029D0000C9B0693E3E5119BCB181A4406926627DD
:1029E00059E651EC180B0022002305F0A7FE002841
:1029F0007FF426AE039BC3F101031C9321E6099BE0
:102A0000DB077FF593AAFFF78DBAC3F101031A44E0
:102A100022EAE273069202936727CCE523B90123E9
:102A2000029366270693C6E5119B039A01331A4465
:102A300022EAE273069202936627BCE5084B4246FF
:102A4000E0E40DF17A0293E7DC91010800003040E8
:102A50000000E03FC8910108C0910108C49101083D
:102A6000C0840108089B99F80170914653F8042B23
:102A7000089342EAE2720392FEF745BB1AEE101A7F
:102A80008B8943F0400213468A81FEF760BC002325
:102A90000B9310938FE702231493FFF73CBA1AEEBF
:102AA000902A0C2313604FF0FF330493FEF756BCBB
:102AB000039C2C44C8E500BF2DE9F8431D4D064694
:102AC000286898460F46914601F0A0F91A4B1B68FA
:102AD000D3F848411CB3286865681F2D24DC4EB923
:102AE0006B1C0235636044F8257001F097F90020F3
:102AF000BDE8F88304EB85010123C1F88890D4F880
:102B00008821AB401A43022EC4F88821C1F80881FD
:102B1000E6D1D4F88C211343C4F88C31E0E703F5F7
:102B2000A674C3F84841D6E701F078F94FF0FF30BA
:102B3000DEE700BF50080020AC8401080000000060
:102B40002DE9F04F03690C69A34283B0C0F287807E
:102B5000013C01F11405A30000F11408009355F89D
:102B6000243058F82420013381469A4208EB84002F
:102B700005EB84070190B2FBF3F63BD30023AE468E
:102B800040469B465EF804AB02681FFA8AFC06FBCF
:102B90000C334FEA134C4FEA1A4A06FB0ACA1FFAD3
:102BA00083FCABEB0C0C1FFA8AF31CFA82FCC3EB20
:102BB000124202EB2C421FFA8CFC4CEA024377458E
:102BC00040F8043B4FEA224B4FEA1A43DAD2009B0B
:102BD00058F8033073B9019B043B984504D307E0D0
:102BE000984504F1FF3403D253F80429002AF7D0A2
:102BF000C9F81040484601F043FC00282BDB0136A1
:102C00004046002355F8041BD0F800C08AB29A1A37
:102C10000B0C12FA8CF2C3EB1C4303EB224392B26F
:102C200042EA0342AF4240F8042B4FEA2343E9D281
:102C300058F8242008EB84036AB9043B984504D370
:102C400007E0984504F1FF3403D253F80429002A21
:102C5000F7D0C9F81040304603B0BDE8F08F00202F
:102C600003B0BDE8F08F00BF2DE9F04F2DED068BCE
:102C700099B08DED040B0291016C289D0A9257ECDE
:102C8000106B0446079341B1426C4A6001239340A4
:102C90008B6001F03BF900232364B7F10009B4BF56
:102CA000012300232B607C4BBCBF29F00049CDF8E9
:102CB000149033EA090300F0B1809DED047B0022FB
:102CC00051EC170BB0EE478AF0EE678A002305F04F
:102CD00035FD804680B1079A01231360299B002BA4
:102CE00000F0DD826D481860431E0193019819B011
:102CF000BDEC068BBDE8F08F16AA17A92046B0EEF2
:102D0000480AF0EE680A01F00FFD5FEA19558246A5
:102D100040F09C80DDE91685454405F23243202BC6
:102D200040F3AB83C3F1400305F2124009FA03F903
:102D300026FA00F049EA0000FDF784FB0123013D7B
:102D40000E93A1F1F871564B0022FDF73DFA4CA30A
:102D5000D3E9002305F08AFA4BA3D3E90023FDF75A
:102D600035FA064628460F46FDF77CFB48A3D3E913
:102D7000002305F07BFA02460B4630463946FDF744
:102D800025FA06460F4605F021FD00228346002362
:102D90003046394605F0DCFC002840F07382A8EB91
:102DA00005056B1EBBF1160F039300F25F823D4BCE
:102DB00003EBCB03D3E9002351EC180B05F0C8FC5F
:102DC000002875D000230D93039B002B0BF1FF3BD4
:102DD000C0F2528200230993BBF1000F6EDA099B07
:102DE000CDF818B0A3EB0B030993CBF100030C93C0
:102DF000029B092B4FF0000B6AD8052B40F33B8355
:102E0000043B02930025029B023B032B00F26F86DA
:102E1000DFE813F041043E0436041904079A42F235
:102E20000F73C9F31309136059EA06031FD1299BD5
:102E3000002B00F06B861C4B01930833299A0198F4
:102E4000136019B0BDEC068BBDE8F08F18EE903A18
:102E5000C3F3130351EC180B43F07F51CDF83880C6
:102E6000A5F2FF35DDF8588041F440116BE7299B4E
:102E7000002B40F0D8830D4B019337E7AFF3008070
:102E800061436F63A787D23FB3C8608B288AC63F70
:102E9000FB799F501344D33F0000F07FF991010864
:102EA0000000F83FE084010800920108FC9101084D
:102EB000039B002BC0F28A840D900990039BCDF8F0
:102EC00018B05B44039300230C93029B092B94D905
:102ED000002301254FF0FF3202930B9508920A93CD
:102EE000089B0F9300216164204600F0E9FF0190E8
:102EF000002800F00486019B2364089B0E2B00F23F
:102F0000F680002D00F0F3800699002940F36084DC
:102F1000BF4B01F00F0203EBC203C805D3E9006702
:102F20004FEA211540F1EC83BA4B51EC180BD3E971
:102F3000082305F0C5FA41EC190B05F00F054FF019
:102F400003098DB1DFF8CC82E90709D5304639464F
:102F5000D8E9002305F08AF909F1010906460F4670
:102F60006D1008F10808EFD13B4651EC190B3246C1
:102F700005F0A6FA074688460D9B43B1A64B0022F2
:102F80003846414605F0E4FB002840F033854846CA
:102F9000FDF768FA3A46434605F068F99F4B002270
:102FA000FDF714F9A1F15073CDE910011193089BBD
:102FB000002B00F0E583069B1593089B1493019B5F
:102FC000414638465E1C05F001FC149A904B03EB19
:102FD000C20313ED027B00F130058DED127BFDF78E
:102FE00041FA02460B4638464146FDF7EDF80B9A8A
:102FF000EDB280468946002A00F0A984DDE912235B
:103000008749002005F05CFADDE91023FDF7DCF8C4
:10301000019F02460B4643EC192B3D7042464B463E
:1030200005F0B4FB002840F0DD8400270AEE10AA6A
:103030000AEE904ACDF840B03446BB46DDF850A0C9
:1030400057EC196B2AE00BF1010BD34549DA754BAC
:1030500030463946002205F009F9724B0022064637
:103060000F464046494605F001F98946804605F07D
:10307000ADFB0546FDF7F6F902460B4640464946CC
:10308000FDF7A2F8303504F8015B32463B46804636
:10309000894605F05DFB002840F0F68442464B4629
:1030A0005D490020FDF790F832463B4605F050FBA5
:1030B0000028C8D0159B019A264601331AEE10AAA3
:1030C0001AEE904A0693354602E0954200F0C0841D
:1030D0002E4615F8013D392BF7D00133DBB22B70AA
:1030E000ABE1DDF840B01AEE10AA1AEE904A179B39
:1030F000002BC0F29B80069A0E2A00F39780444B67
:1031000003EBC20393ED007B0A9BB0EE479AF0EE0F
:10311000679A002B1ADA089B002B17DC40F04B83D0
:1031200051EC170B404B002205F0A0F802460B466D
:1031300051EC180B05F016FBDDF820904D460028E9
:1031400000F0C1820A9B019EDA43C2E257EC196B80
:1031500019EE102A3B4651EC180B05F0B1F905F0B9
:1031600035FB8046FDF77EF919EE102A3B4605F047
:103170007DF8019D0B46024651EC180BFDF724F833
:1031800008F1300305F8013B089B012B00F0868312
:103190004FF0010908EE10AA08EE904ACB46BA4655
:1031A00019EE109A1C461DE04A46534630463946F1
:1031B00005F086F905F00AFB8046FDF753F94A460B
:1031C000534605F053F80BF1010B0B460246394606
:1031D0003046FCF7F9FF08F13003A34505F8013B41
:1031E00000F058830F4B002205F040F80022002326
:1031F00006460F4605F0A2FA0028D5D0069B0133FB
:1032000018EE10AA18EE904A06932E4615E100BF5C
:10321000E0840108D08501080000F03F00001C4058
:103220000000E03F00002440000014400B9A002AF8
:103230003DD0029A012A40F38482089B5F1E0C9BBA
:10324000BB42C0F25782DF1B089B002BC0F26C838D
:10325000039A1146099A194416461A440391099291
:103260000121204600F05AFF054623E001230D937B
:10327000039B002BBFF6AEADC5F1010309930023FC
:103280000393A9E55846FDF7EDF832463B4605F0B5
:1032900055FA00287FF483AD0BF1FF3B7FE5844BAB
:1032A0000193019819B0BDEC068BBDE8F08F0C9F1F
:1032B000099E0B9D002E0CDD039A002A09DD099959
:1032C000B2421346A8BF3346C91AF61AD31A099157
:1032D00003930C9BCBB10B9B002B00F07082002F53
:1032E0000FDD29463A46204600F0F2FF52460146DD
:1032F0000546204600F040FF51468246204600F039
:1033000005FE0C9BDA1B40F0FD820121204600F0F7
:1033100005FFBBF1000F814600F3B480029B012B37
:1033200040F3858100270120BBF1000F40F0B580FC
:10333000039A104410F01F0000F09480C0F12003A5
:10334000042B40F3E783099BC0F11C0003440244B3
:10335000099306440392099B002B05DD51461A464A
:10336000204601F015F88246039B002B05DD4946F7
:103370001A46204601F00CF881460D9B002B40F0C8
:103380003781089B002B40F31D810B9B002B40F0E5
:103390009F80069B01330693019FDDF82080012664
:1033A00007E0514600230A22204600F0B9FD01360D
:1033B000824649465046FFF7C3FB464500F13000C0
:1033C00007F8010BEDDB089A002AC8BF1646019AE0
:1033D000D8BF0126034616444FF00008514601228B
:1033E0002046029300F0D4FF4946824601F048F897
:1033F000002816F8012C40F38F810199731E04E018
:10340000994200F0978113F8012D392A03F1010642
:10341000F6D001321A704946204600F077FD65B1BA
:10342000B8F1000F05D0A84503D04146204600F072
:103430006DFD2946204600F069FD5146204600F00A
:1034400065FD00233370079B1A46069B1360299B7A
:10345000002B3FF44BAC01981E6019B0BDEC068BFD
:10346000BDE8F08F1C20099B03440993039B034490
:10347000064403936FE70125C5E4C3F1200306FA70
:1034800003F059E401465A46204600F021FF029B12
:10349000012B814640F3C8810027D9F8103009EB91
:1034A0008303186900F0EAFDC0F1200040E700BF87
:1034B000F8910108294600230A22204600F030FD39
:1034C0000F9B002B054640F3FE82CDF81880089331
:1034D000002E00F30881002F40F0FD812F46049B51
:1034E0000199089803F001024B1E1844029B0B92AD
:1034F000134309908B460A9349465046FFF720FB39
:1035000029460390504600F0BBFF3A4680464946A4
:10351000204600F0D7FF039BC26806463033002ADE
:1035200042D101465046089300F0AAFF314604906C
:10353000204600F0EBFC049A089B1AB90A9900296E
:1035400000F0AB82B8F1000F0BF10106C0F28481EC
:10355000029948EA01080B9951EA080100F07C81C0
:10356000002A00F3E581099A8BF800305A4500F0F3
:10357000E881514600230A22204600F0D1FCBD42DA
:10358000824629464FF000034FF00A02204613D02E
:1035900000F0C6FC3946054600230A22204600F00A
:1035A000BFFCB3460746A7E701462046049300F058
:1035B000ADFC049B0122C5E700F0B2FCB346054612
:1035C000074699E7029B022B6CDC0B9B002B7FF4D8
:1035D0007FAF069B4946013350460693FFF7B0FA8A
:1035E000019E00F1300306F8013B4FF00008F5E6BC
:1035F0004946504600F044FF0028BFF6C2AE51468F
:1036000000230A22204600F08BFC069B03F1FF38C2
:103610000B9B8246002B7FF44DAF0F9B002B40F39A
:1036200049820893B8E6BA4B0193033306E4DDE917
:10363000041200297FF476AEC2F31303002B00F0CE
:10364000FE80049F6FE601230B930A9B069A1344A6
:103650000F930133012B1E460893B8BF01260021AA
:10366000172E61647FF740AC012204235B0003F155
:103670001400B042114602F10102F7D9616433E44B
:1036800001230B930A9E002E41DD0F960896E6E774
:1036900000230B93D9E700230B93F3E70F9BCDF89F
:1036A00018800893089B002B7FF44CAD49460522F7
:1036B000204600F035FC01468146504600F0E0FE11
:1036C00000287FF73FAD019E069A312306F8013BA3
:1036D0000132531C49462046069300F017FC002D8A
:1036E0007FF4A7AEA9E629463246204600F050FEF8
:1036F0000546F0E60C9B0C97FB1A9B440027A3E5BC
:103700004FF00209B0EE489AF0EE689A19E40123EE
:103710000A930893FFF7E4BB03D1029BDB073FF555
:103720006CAE731E01E013F8012D302A03F101067F
:10373000F9D070E6069B019A01330693312313708A
:1037400069E60E9A002A00F0518103F23343039A8E
:103750000C9F1A440392099A16461A4409927FE56F
:103760004846FCF77FFE3A46434604F07FFD694B2E
:103770000022FCF72BFDA1F15073CDE9100111934C
:10378000654B384641460022FCF71EFDDDE91089F5
:1037900042464B4606460F4604F0F8FF002840F02C
:1037A000638130463946424609F1004304F0D0FFB8
:1037B00000283FF49CAC4FF000094D46C2E451464E
:1037C0000C9A204600F084FD82469EE50D9053E55C
:1037D00000F03881069A514B554205F00F0203EB79
:1037E000C203D3E9002351EC180B04F03FFD2D1167
:1037F0000746884600F07081494E00234FF00209C9
:10380000EA0706D5D6E9002304F030FD09F10109E5
:1038100001236D1006F10806F2D1002B3FF4ACAB8A
:1038200007468846FFF7A8BB049B002B7FF434AE05
:10383000DDE90412C2F31303002B7FF42DAE394FE0
:103840001740002F3FF46FAD099B01330993039B91
:1038500001330393012766E50699002A01F101016E
:10386000069112DD514601222046029300F090FDA0
:103870004946824600F004FE0028029B40F3FE8089
:10388000392B00F0EB80039B3133A8468BF80030D6
:103890003D46C0E518EE10AA18EE904A069B01338B
:1038A000069302460B46FCF791FC53EC192B064697
:1038B0000F4604F06BFF48B953EC192B30463946DC
:1038C00004F03CFF28B118F0010F02D0019AFFF775
:1038D000FFBB2E46B1E56968204600F0F1FA0646C6
:1038E000002800F0FD802B6902339A0005F10C01DD
:1038F0000C30FDF78BF931460122204600F048FDDF
:103900000746ECE55146204600F0E2FC8246FCE426
:10391000FC91010800001C4000001440E0840108F4
:10392000D08501080000F07FDDE908239E1A97E4A6
:10393000069A392B02F10102069200F08F800133C2
:10394000A3E7069A0132A84606923D4646E5DDE920
:103950001223DDE9100104F089FC019B1D70149B0A
:10396000012B41EC190B00F0AC80149B019A13441D
:103970001D46704B00224046494604F077FC8946BC
:10398000804604F023FF0746FCF76CFD3037024603
:103990000B4640464946FCF717FC06F8017BB5424A
:1039A00080468946E5D1644B002251EC190BFCF7A7
:1039B0000DFC42464B4604F0CBFE002858D153EC98
:1039C000192B5D490020FCF7FFFB42464B4604F0F3
:1039D000DDFE00283FF48BAB2E46013D16F8013C7E
:1039E000302BF9D0159B0133069326E5169BC3F1C6
:1039F0003603ACE6089B002B3FF4B2AE0F9B002BC6
:103A00007FF775AB069A013ACDE914323846494B37
:103A10004146002204F02AFC02461746884609F176
:103A20000100FCF71FFD3A46434604F01FFC434BE0
:103A30000022FCF7CBFBA1F15073CDE910011193EB
:103A4000FFF7BDBA58EC187B4FF00209FFF794BAA4
:103A5000069B0133069331232B70EEE43922A846EE
:103A60008BF800203D46C8E44FF000094D462AE699
:103A7000159B019A01330693FFF72ABB7FF405AF2C
:103A8000DA077FF502AFFBE6159B013326461AEEF7
:103A900010AA1AEE904A0693CFE4069A392B02F147
:103AA000010206920BF10106D8D0B8F1000F3FF7E2
:103AB000EAAEEAE6029B022B3FF7F0ADCDF81880A4
:103AC00087E535466FE7029B022B3FF7E7AD0F9B7B
:103AD000CDF818800893FBE44FF00209FFF74CBAC9
:103AE000174B1848324640F2EA2101F0DFFD00256D
:103AF00065642946204600F0E3F9019078B9104B3F
:103B0000104800224FF4D57101F0D0FD0E4B019307
:103B1000FFF7ECB83FF41FACC0F13C00A3E4019BFD
:103B2000236401224FF0FF330A950F930B92089301
:103B3000FFF7DDBA000024400000E03F00001C4019
:103B40000C9201082092010800920108F8B5244F58
:103B50000C460646FDF746F9BA685568C4F57E631B
:103B60000F3325F003052B4423F47F6323F00F0369
:103B7000A3F58054B4F5805F07DB00213046FDF7E4
:103B8000A9F9BB682B44984204D03046FDF730F9C0
:103B90000020F8BD61423046FDF79CF901300DD0A0
:103BA000104ABB682D1B45F001055D601368304667
:103BB0001B1B1360FDF71CF90120F8BD00213046E6
:103BC000FDF788F9BA68831A0F2BDEDD43F0010395
:103BD0005360054B03491B68C01A0860D5E700BF56
:103BE000400400206C0B00204808002000295FD012
:103BF0002DE9F0410C468046FDF7F4F854F8043CFA
:103C0000754FA4F1080523F001016A18BE685068D9
:103C1000964220F0030000F08680DE07506002EB41
:103C2000000C33D454F8084CDCF804302D1B21442C
:103C3000AC6807F1080C644503F0010363D0D5F8C4
:103C40000CE0C4F80CE0CEF80840002B00F08F80A8
:103C500041F001036B601160B1F5007F31D27A68E9
:103C6000CB0848090121013381401143796007EBFA
:103C7000C30257F83310083AC5E9021247F8335027
:103C8000CD604046BDE8F041FDF7B2B8DCF8043045
:103C9000DB070ED4014407F1080C9368634541F03B
:103CA00001006CD0D268DA60936068606950D3E735
:103CB000704741F00103B1F5007F44F8043C116006
:103CC000CDD3B1F5206F4FEA512345D28B0903F1D3
:103CD000390003F13802C300F818FB58083898423D
:103CE00054D05A6822F003028A4202D99B68984253
:103CF000F7D1D868C5E902308560DD604046BDE88F
:103D0000F041FDF775B8002B61D1D2E902230144DF
:103D1000D3609A6041F001036B6040466950BDE892
:103D2000F041FDF765B8DB07014407D454F8083CBF
:103D3000ED1A1944D5E90223D3609A6041F00103DA
:103D40006B60264BBD601B688B429AD8244B404663
:103D50001968FFF7FBFE94E7142B0AD9542B1DD8E2
:103D60000B0B03F16F0003F16E02C300B4E70144D3
:103D700093E703F15C0003F15B02C300ACE7C7E922
:103D80000455C5E902CC686069507AE779689210F9
:103D9000012404FA02F20A437A60ABE7B3F5AA7F82
:103DA00006D8CB0B03F1780003F17702C30093E749
:103DB00040F25452934206D88B0C03F17D0003F17C
:103DC0007C02C30088E74FF47E737E2284E741F0D3
:103DD00001036B60116054E7400400204C08002090
:103DE000680B0020F03070470048704744090020FD
:103DF0000048704744090020704700BF704700BF6B
:103E0000704700BF704700BF704700BF704700BFDA
:103E10000120704701207047704700BF704700BF06
:103E200001F0FF01102A2BDB10F0070F08D010F86B
:103E3000013B013A8B422DD010F0070F42B3F6D16F
:103E4000F0B441EA012141EA014122F007047FF088
:103E500000070023F0E80256083C85EA010586EADF
:103E6000010685FA47F5A3FA87F586FA47F6A5FA1B
:103E700087F68EB9EED1F0BC01F0FF0102F0070227
:103E800032B110F8013B013A83EA010313B1F8D1D2
:103E90000020704701387047002D06BF35460338B3
:103EA000073815F0010F07D1013015F4807F02BFEC
:103EB000013015F4C03F0130F0BC0138704700BF3D
:103EC000C36C70B505460C464BB153F8240080B165
:103ED000026843F824200023C0E9033370BD212287
:103EE000042101F009FC0346E8640028EDD100201C
:103EF00070BD012101FA04F6721D9200284601F0FE
:103F0000FBFB0028F3D0C0E90146E4E731B1C36C04
:103F10004A6853F82200086043F82210704700BF37
:103F2000F0B50C69064683B00D4601F1140E002071
:103F3000DEF800101FFA81FC02FB0C334FEA134C31
:103F4000090C02FB01CC01309BB203EB0C43844211
:103F50004EF8043B4FEA1C43EADC3BB1AA68A2429C
:103F600007DD05EB8402013453612C61284603B060
:103F7000F0BD6968019301313046FFF7A1FF019B55
:103F80000746B8B12A690193023205F10C0192008B
:103F90000C30FCF73BFEF26C6968019B52F8210083
:103FA000286042F821503D4605EB840201345361FC
:103FB0002C61DBE7024B03483A46B52101F076FB62
:103FC0000C920108549201082DE9F8430C46284947
:103FD0001F46164603F1080281FB0231092F4FEA02
:103FE000E2730546C3EB610339DD4FF0010C00219C
:103FF0004FEA4C0C634501F10101F9DC2846FFF75B
:104000005FFF014668B3089B4361092E4FF001032F
:10401000036112DC0A340926B7420BDDBE1B2644BD
:1040200014F8013B0A22303B2846FFF779FFA642ED
:104030000146F5D10846BDE8F88304F10909C846F0
:10404000344418F8013B0A22303B2846FFF768FF4A
:10405000A0450146F5D1A6F108044C44DCE7002157
:10406000CCE70A46034B0448CE2101F01FFB00BFFA
:10407000398EE3380C92010854920108030C1B049A
:10408000D3B90004102310F07F4F04BF000208339F
:1040900010F0704F04BF0001043310F0404F04BF14
:1040A00080000233002805DB10F0804F03F101038C
:1040B00008BF2023184670470023E4E7036813F085
:1040C0000702014607D0DA071FD4980721D55B08FD
:1040D0000B600120704798B2A0B11046DAB20AB95D
:1040E00008301B0A1A0704BF1B0904309A0704BFD3
:1040F0009B080230DA0703D45B0800F1010006D008
:104100000B6070471B0C1020E8E700207047202050
:1041100070479B080B600220704700BF38B5C36C26
:1041200004460D464BB15868B0B102685A6000228F
:104130000123C0E90435C26038BD2122042101F009
:10414000DBFA0346E0640028EDD1094B0948002260
:104150004FF4A07101F0AAFA1C220121204601F0BF
:10416000CBFA0028F1D001220223C0E90123DEE7C7
:104170000C920108549201082DE9F04F0E6915695F
:10418000AE4285B08846144605DB2A4623463546AE
:104190000C4616469846A3686168AF19BB42B8BF83
:1041A0000131FFF78DFE0190002800F08680019B11
:1041B00003F1140909EB870AD14505D24B460022C9
:1041C00043F8042B9A45FBD808F1140808EB860B3A
:1041D00004F11403D8451A4603EB85055FD22B1B67
:1041E000153B23F0030304331534A54238BF0423E1
:1041F000CDE902A7AC461F46924605E0000C29D146
:10420000C34509F1040948D958F8040B85B2002DBB
:10421000F4D056464C46002356F8040B216882B26F
:104220001FFA81FE05FB02EE000C0A0C734405FB2D
:10423000002202EB13429BB243EA0243B44544F826
:10424000043B4FEA1243E7D849F8073058F8040C0A
:10425000000CD5D0D9F80030544619464D460022FE
:104260002688090C00FB06110A449BB243EA02436C
:1042700045F8043B54F8046B2968360C8BB200FBFC
:10428000063303EB1243A4454FEA1342E8D8C34573
:1042900049F8073009F10409B6D8DDE902A7002F73
:1042A00002DC05E0013F03D05AF8043D002BF9D0B1
:1042B0000198076105B0BDE8F08F034B0348019AF0
:1042C00040F25D1101F0F2F90C92010854920108DC
:1042D00012F003032DE9F0411446064632D10D4693
:1042E000A41020D0D6F84880B8F1000F33D0E307EF
:1042F0004FF0000707D4641015D0D8F80000A8B11B
:104300008046E307F7D5424629463046FFF734FF9B
:10431000B5B16968F36C641053F821202A6043F842
:1043200021500546E9D12846BDE8F0814246414684
:104330003046FFF721FFC8F8000007608046E0E73D
:104340000546D8E7013B0F4A52F823200023FFF728
:10435000E7FD0546C4E701213046FFF7B1FD804681
:1043600040B1012340F27122C0E904320023B0645D
:104370000360BCE7044B054842464FF4A07101F0CE
:1043800095F900BFD08401080C92010854920108ED
:104390002DE9F0470C4690462669A368496806EB6C
:1043A0006216751C9D4207464FEA621904DD5B00E8
:1043B0009D4201F10101FADC3846FFF781FD844698
:1043C000002851D0B9F1000F00F114000EDD09F101
:1043D00005024FEA820E03460CEB8202002143F8ED
:1043E000041B9342FBD1AEF114031844216904F17C
:1043F000140318F01F0803EB81012DD0C8F1200928
:1044000086464FF0000A1A6802FA08F242EA0A02E7
:104410004EF8042B53F8042B994222FA09FAF2D8E9
:104420000B1B153B23F00303043304F115029142E7
:1044300038BF0423BAF1000F18BF2E4640F803A07E
:10444000FB6C6268CCF8106053F822102160604663
:1044500043F82240BDE8F087043853F8042B40F8B5
:10446000042F9942F9D8EBE7034B0448624640F227
:10447000D91101F01BF900BF0C92010854920108F8
:104480000B6984460069C01A16D10CF1140C143162
:104490000CEB830210B401EB830301E0944508D2D6
:1044A00052F8044D53F8041D8C42F7D005D24FF05A
:1044B000FF305DF8044B7047704701205DF8044BF6
:1044C000704700BF2DE9F84F0F691369FF1A002FDD
:1044D0000E4690467AD101F11405143202EB8302A4
:1044E00005EB830301E09D4273D253F8041D52F89B
:1044F000044DA142F7D064D37168FFF7E1FC814617
:10450000002872D03569D8F81020C76008F1140E61
:1045100006F1140009F1140A06F1100C0EEB8202E8
:1045200000EB8507564600215EF8044B5CF804BF9B
:10453000A3B211FA8BF1CB1A210CC1EB1B4101EB99
:1045400023419BB243EA0143724546F8043B4FEADC
:104550002141E9D8A2EB0804153C08F115084245B1
:1045600024F0030606F1040638BF0426304424F084
:10457000030238BF002287425244B24416D956463D
:10458000044654F8043B11FA83F10A1402EB134277
:1045900089B241EA0243A74246F8043B4FEA22416E
:1045A000EFD87A1E101A20F00302524423B952F8B1
:1045B000043D013D002BFAD0C9F810504846BDE833
:1045C000F88F334601274646984695E7F9DB0027E2
:1045D00092E70021FFF774FC814668B101220023B5
:1045E000C9E904234846BDE8F88F074B07484A4607
:1045F0004FF4107101F05AF8034B04484A4640F258
:10460000322101F053F800BF0C92010854920108C6
:1046100082B08DED000B154B019A1340A3F150733E
:10462000002B05DD0020194641EC100B02B070474D
:104630005B42B3F1A07F4FEA235208DA4FF4002324
:10464000002043FA02F141EC100B02B07047143A1B
:104650001E2ADABF4FF0004323FA02F201220021A2
:10466000104641EC100B02B0704700BF0000F07F15
:10467000F8B5046900F1140606EB8404271F54F80A
:10468000045C2846FFF7FAFCC0F120030A280B60FF
:1046900030DDBE42A0F10B0019D254F8081C08B35B
:1046A000C0F12007854001FA00F0F9402943A4F148
:1046B000080541F07F53AE4243F4401303D254F84F
:1046C0000C1CF9400843024643EC102BF8BD40B1E6
:1046D00005FA00F040F07F53002043F440130246F7
:1046E000F2E7014645F07F5343F440130A4643EC9A
:1046F000102BF8BDC0F10B0C25FA0CF1BE4241F0B5
:104700007F5338BF54F8081C00F1150034BF21FA5C
:104710000CF1002105FA00F043F4401340EA0102D5
:1047200043EC102BF8BD00BF2DE9F043884683B061
:10473000012157EC106B1546FFF7C2FB0446002819
:104740004FD0C7F30A59C7F31303B9F1000F01D0D3
:1047500043F48013002E019324D068460096FFF79F
:10476000ADFC002839D0DDE90013C0F1200203FAC6
:1047700002F20A43C34062610193002B14BF02227C
:104780000122A3612261B9F1000F16D0A9F23343CF
:104790000344C0F13500C8F800302860204603B05B
:1047A000BDE8F08301A8FFF789FC019B636101224A
:1047B00020302261B9F1000FE8D104EB8203A0F2AE
:1047C0003240C8F800001869FFF758FCC0EB4210EF
:1047D0002860204603B0BDE8F083009B6361019B25
:1047E000CBE7034B0348224640F20A3100F05EFF5C
:1047F0000C920108549201082DE9F04383B00E4653
:1048000069460746FFF734FF01A9304655EC104BC7
:10481000FFF72EFF3B693169591ADDE90023D31AEE
:1048200003EB4113002B51EC100B0DDD05EB03598D
:104830004D4602460B462046294603F041FE41EC18
:10484000100B03B0BDE8F083C3EB033301EB035758
:104850003946EEE7172870B506460CDD0A490B4DC0
:104860000020002422462B4603F000FD013EF9D132
:1048700041EC100B70BD064B03EBC006D6E90401FA
:1048800041EC100B70BD00BF0000F03F0000244061
:10489000D08401080139491101F1010C116902F1BB
:1048A000140303EB81018B4200EB8C0C16D210B584
:1048B000A0F1040E53F8044B4EF8044F9942F9D876
:1048C0008B1A153B23F0030304331844844504D9A1
:1048D000002340F8043B8445FBD810BD844505D92E
:1048E000002340F8043B8445FBD87047704700BF65
:1048F00003694A11934200F1140009DA00EB8303C3
:1049000002E053F8042DB2B98342FAD80020704770
:1049100000EB8203F8DD11F01F01F5D010B450F860
:10492000224024FA01F202FA01F18C4209D001205E
:104930005DF8044B70470120704753F8042D002A9E
:10494000F5D18342F9D800205DF8044B704700BFD1
:1049500053EC102B70B5164E23F000410025B142E8
:104960000446056021DC10EE106A0E431DD0114E86
:104970001E40184666B91946002210EE100A0E4B6A
:1049800003F074FC6FF035050246084621F0004143
:1049900020F0FF40091520F4E000A1F2FE3140F0C4
:1049A0007F53294443F40013216043EC102B70BD66
:1049B000FFFFEF7F0000F07F0000504330B540EA7A
:1049C0000104A30701D1032A0FD8844601F1FF3E59
:1049D00007E01EF8011F03F8011B541EC1B19C46DD
:1049E00022466346002AF4D130BD0B468446194660
:1049F00053F8045BA5F1013424EA050414F0803F68
:104A0000E4D1043A032A4CF8045B1946EFD8DDE7F9
:104A10006244002CE8D003F8011B9342FBD130BD67
:104A20002DE9F04F936883B09146002B6ED0176844
:104A30008D6880460C460868083744E0A38913F463
:104A4000906F2ED0D4E90415A0EB010A05EB4505C3
:104A500005EBD5750AEB06006D100130A8422A4619
:104A600084BF05462A465B0537D511464046FBF70D
:104A700015FE00283BD0524621690190FCF7C6F88C
:104A8000A289019B22F4906242F08002A281A5EBF0
:104A90000A0203EB0A006561A260236120603546CB
:104AA000B2465946524600F0EBFEA068D9F808100D
:104AB0002368451B8E1B03EB0A00A5602060C9F824
:104AC00008601EB3083757E902B6AA46002EF9D08F
:104AD000B542B3D93546B246E3E7404600F04CFF55
:104AE00003460028D3D121694046FFF77FF80C2305
:104AF000C8F80030A389002243F040034FF0FF3094
:104B0000A381C9E9012203B0BDE8F08F0020C9F8F4
:104B1000040003B0BDE8F08F2DE9F04F2DED048BBC
:104B2000BBB008EE101A04938B891B0608EE900A9E
:104B3000914603D50B69002B00F0F28411AB0E9364
:104B40000023CDE90F33CDE9093318EE90BA07936E
:104B500011AF0893019399F80030002B00F01A81EF
:104B60004C4604E014F8013F002B00F0F880252BA0
:104B7000F8D1B4EB090540F0F5802378002B00F064
:104B800009814FF0000300224FF0FF318DF83330E0
:104B900004F1010963780392009192462B2409F1F4
:104BA0000109A3F120025A2A00F20881DFE812F07D
:104BB0005402060106014F020601060106013002F9
:104BC000060106012502640206015F026902060170
:104BD00020025B005B005B005B005B005B005B0036
:104BE0005B005B00060106010601060106010601E5
:104BF000060106010601B4016F0006010601060167
:104C000006010601060106010601060106019A00D9
:104C1000060106010601980106010F0206010601C0
:104C200083040601060106010601060106010601CC
:104C3000060106010601B401710006010601060124
:104C4000020271006A000601F501060194029C004F
:104C500083026A00060198016C00810406010601C6
:104C6000A20406016C00A3F13002002119F8013BF7
:104C700001EB810102EB4101A3F13002092AF5D9D0
:104C800003918EE74AF0200A99F8003087E74AF04E
:104C9000100A1AF0200F00F01381049D073525F04B
:104CA00007052A466B6852F8085B04921E46002BE3
:104CB000C0F24B81009B013300F06C8455EA06037F
:104CC0002AF0800800F076830A2D76F1000380F048
:104CD000A183303501238DF8E750C24602930DF1D0
:104CE000E70430E04AF0100A1AF0200600F0D880FD
:104CF000049D073525F007052B466E6853F8085BC1
:104D000004932AF4806800234FF000028DF83320CA
:104D1000009A1146013100F0278155EA060128F07A
:104D2000800A40F0AF82002A40F03B84002B40F024
:104D3000468318F00103029300F0AC8330238DF812
:104D4000E7300DF1E704009A02999DF833308A426A
:104D5000B8BF0A461646002B3DD001363BE0B4EB07
:104D6000090517D0109B2B4410930F9B0133072B81
:104D7000C7E900950F9304DC0837019B2B4401938E
:104D8000FBE618EE101A0EAA5846FFF749FE28B99E
:104D900011AFF2E7109B002B40F0538418EE103A4D
:104DA0009B8913F0400F019B18BF4FF0FF33019315
:104DB00001983BB0BDEC048BBDE8F08F002BE9D02F
:104DC0008DF8843001264FF000038DF833300296C1
:104DD00021AC002300931AF00203059318BF02369A
:104DE0001AF08403DDE90F12069304D1039B9D1B87
:104DF000002D00F349829DF83350481C07F1080C40
:104E00009DB10DF1330501323D6007284FF00105DA
:104E1000CDE90F027D6000F3728201F1020E07F10D
:104E20001005014667467046AC46059B7BB10DAB4D
:104E300002323B6007284FF00203CDE90F027B608E
:104E400000F36D820146674601300CF1080C069BA9
:104E5000802B00F07681009B029D5D1B002D00F3EE
:104E6000BB81029B3C601A440728CDE90F027B609E
:104E700000F3F1811AF0040F04D0039B9C1B002C5B
:104E800000F35D82019B0399B142ACBF5B189B1993
:104E90000193002A40F0EC8100230F9311AF5AE6F2
:104EA00004991AF0100201F1040340F0FF821AF095
:104EB000400100F0AD83049904930D88164620E765
:104EC000049A1AF0100F02F1040337D11AF0400FC0
:104ED000049A2FD0B2F900500493EE173346E6E659
:104EE000049D55F8044B4FF000038DF83330002C2F
:104EF00000F07183009A1346013300F0098300210A
:104F00002046FEF78DFF002800F0A483031B0293C8
:104F100000230495009316E7049D4FF000038DF8DD
:104F20003330012655F8043B8DF884300495029601
:104F300021AC4EE71AF4007F40F0788315680493A3
:104F4000EE173346002BBFF6B5AE009A6D42114600
:104F50004FF02D0366EB460601318DF83330D04615
:104F60004FF001037FF4D9AE012B3FF4ADAE022B1D
:104F70003AAC40F0C880079A05F00F032D09D35CC6
:104F800004F8013D45EA0675360955EA0603F3D1F2
:104F90003AAB1B1BC2460293D5E699F800306C2B46
:104FA00003BF99F801304AF0200A09F101094AF0DB
:104FB000100AF4E599F80030682B03BF99F8013026
:104FC0004AF4007A09F101094AF0400AE7E54AF09B
:104FD000100818F0200600F0FD81049D073525F02B
:104FE00007052B466E6853F8085B049301238BE694
:104FF00099F800304AF0800AD1E5049A99F8003017
:1050000052F8041B03910029C0F2C7820492C6E53E
:105010005846FEF7E9FE436809931846FBF7B0FFD0
:105020000A9005465846FEF7DFFE83680893002D78
:105030003FF42AAE089A99F80030002A3FF4AFAD49
:105040001278002A3FF4ABAD4AF4806AA7E599F8DC
:1050500000304AF0010AA2E59DF8332099F80030AB
:10506000002A7FF49CAD20228DF8332097E599F833
:1050700000304AF0040A92E599F800308DF8334088
:105080008DE5494611F8013B2A2B00F0F282A3F18D
:105090003002092A894698BF002100F2E18219F8FE
:1050A000013B01EB810102EB4101A3F13002092A2E
:1050B000F5D9009175E5049B53F8045B0493302304
:1050C0008DF8343078238DF83530BF4B07934AF094
:1050D00002080026022317E6049A1AF0200F52F85D
:1050E000043B049240F0DC811AF0100F40F06F8214
:1050F0001AF0400F40F0A1821AF4007F00F067829E
:10510000019A1A7027E505F00703ED0845EA467590
:10511000F608303355EA0601224604F8013DF2D183
:1051200018F0010F3FF434AF302B3FF431AF302390
:10513000023A04F8013C3AAB9B1AC2460293144669
:1051400001E6039B9D1B002D7FF785AE102D40F3DC
:105150008B82DFF8788205960846414618EE106A81
:10516000A04610230C4604E0103D102D07F108075F
:1051700017DD013010320728C7E90043CDE90F02DF
:10518000F2DD0EAA3146584611AFFFF749FC002860
:105190007FF404AE103D102DDDE90F024FF0100337
:1051A000E7DC23460146059E44460131984607F157
:1051B00008032A440729C7E90085CDE90F1200F347
:1051C000F681029D03F1080C1F46009B5D1B002D1C
:1051D00001F101007FF745AE102D40F32382DFF887
:1051E000EC81C4460846A0463946102318EE107AD2
:1051F000644604E0103D102D01F1080117DD013077
:1052000010320728C1E90043CDE90F02F2DD0EAAF2
:1052100039465846FFF704FC00287FF4BFAD103D27
:10522000102DDDE90F0211A94FF01003E7DC234632
:105230000F4644460130984601F108032A440728E6
:10524000C7E90085CDE90F0200F3D480013003F1F6
:10525000080C1F4605E618EE101A0EAA5846FFF76E
:10526000DFFB00287FF49AAD109A0DF1440C01E6A3
:1052700018EE101A0EAA5846FFF7D2FB00283FF48A
:105280000BAE8BE5D0466FE6102DDFF844812ADDAA
:10529000084641460B96A04618EE106A10230C46AD
:1052A00004E0103D102D07F1080717DD0130103222
:1052B0000728C7E90043CDE90F02F2DD0EAA314607
:1052C000584611AFFFF7ACFB00287FF467AD103DE7
:1052D000102DDDE90F024FF01003E7DC23460B9E93
:1052E00044460146984601312A440729CDE90F1268
:1052F000C7F800807D6000F3388108377BE518EE41
:10530000101A0EAA5846FFF78BFB00287FF446AD13
:10531000DDE90F120DF14C0C481C11AF85E518EEBC
:10532000101A0EAA5846FFF77BFB00287FF436AD13
:10533000DDE90F120DF14C0C481C11AF87E5102C64
:105340000F9BDFF88C8021DD4746102518EE108A70
:1053500004E0103C102C0CF1080C16DD0133103267
:10536000072BCCE90075CDE90F32F2DD0EAA4146DC
:105370005846FFF755FB00287FF410AD103C102C69
:10538000DDE90F320DF1440CE8DCB846013322446C
:10539000072BCCE90084CDE90F327FF773AD18EE0F
:1053A000101A0EAA5846FFF73BFB00287FF4F6AC14
:1053B000109A67E5009B002B7FF48BACC24600235C
:1053C000009302933AACBEE4C89101080886010834
:1053D000F8850108049918F0100201F104035BD16B
:1053E00018F0400100F00081049904930D881646DE
:1053F000012389E418EE101A0EAA5846FFF710FB95
:1054000000287FF4CBAC0F98109A01300DF14C0CB2
:1054100011AF26E508F4806309EE10BACDF80890C4
:10542000DDF820B0B9464FF0000A3AAC1F4608E05C
:105430003146FBF781F80A2D76F100031ED30546AD
:105440000E46284631460A220023FBF775F811461E
:10545000303104F8011C28460A220023013C0AF1DD
:10546000010A002FE4D09BF800105145E0D1BAF1B9
:10547000FF0FDDD00A2D76F1000361D23AAB1B1B82
:10548000CDF820B04F4619EE10BADDF8089002931F
:10549000C24658E43AAC56E404930D68012333E461
:1054A000019A1A60D2175A60FFF755BB0D68049332
:1054B00027E4D0468DE5794A07921AF020061ED0DF
:1054C000049D073525F007052A466E6852F8085BEB
:1054D00004921AF0010F09D055EA060206D08DF8A1
:1054E000353030234AF0020A8DF834302AF48068CF
:1054F000022309E46A4A07921AF02006E0D10498D0
:105500001AF0100100F104023CD005680492E0E7B3
:1055100020460495FBF734FD00230290009312E42B
:105520004021FBF7BBF818EE103A1860186100280C
:1055300000F0AB8018EE102A40235361FFF7FEBA4B
:105540000A9B0999E41A1A462046FFF737FA9BF896
:1055500001300BB10BF1010B284631460A22002322
:105560004FF0000AFAF7E8FF69E718EE101A0EAAE2
:105570005846FFF755FA00287FF410ACDDE90F120A
:1055800011AF38E41AF0400039D00498049205882D
:105590000E469EE7D046FFF797BB4942CDE903127E
:1055A00067E5012BD0467FF4E2ACFFF792BB18EE23
:1055B000101A0EAA5846FFF733FA00287FF4EEAB14
:1055C000DDE90F120DF14C0C481C11AF43E4019AB8
:1055D0001A60FFF7C0BA009E324C0495062E28BF11
:1055E00006260296FFF7F5BB049A049318F400769A
:1055F00016BF157815680E460123FFF785BB049981
:1056000004921AF4007616BF0D780D68064660E71E
:10561000049A04931AF4007616BF157815680E469E
:10562000FFF76FBBDFF88080634607E692F9005012
:105630000493EE173346FFF73ABB019A1A80FFF73F
:105640008ABA18EE101A18EE900A0EAAFFF7E8F9B7
:10565000FFF7A4BB009B029304950090FFF773BB78
:1056600000220092FFF79DBADFF83C8063460146B6
:105670009FE5049A99F80130894652F8041B049278
:1056800041EAE1710091FFF78ABA18EE902A0C23E3
:1056900013604FF0FF330193FFF78ABBDC910108E1
:1056A000C8910108F09101080886010800B50B4C6B
:1056B00025681446EE681A4685B003460D464CB17F
:1056C00007490095CDE901143046064900F05EF81F
:1056D00001F0F2FC04490C46F3E700BF1000002083
:1056E00088920108989201089492010808B513461F
:1056F0000022FFF7DBFF00BF38B5A1FB02148CBB13
:10570000FAF7CCFF0546E0B150F8042C22F0030272
:10571000043A242A17D8132A1AD91B2AC0E90044AC
:105720001DD9242A14BF00F1100200F118024FF015
:105730000003C0E9024404BF04614461C2E90033CC
:105740009360284638BD2146FBF7FAFA284638BD53
:1057500002460023C2E900339360284638BD00F1B9
:105760000802F6E7FAF75AFF0C2300250360E8E782
:105770000CB400B583B004AB53F8042B019300F0D4
:10578000B5FC03B05DF804EB02B070470EB410B581
:1057900083B005AB064C53F8042B019301462068F7
:1057A00000F0A4FC03B0BDE8104003B0704700BF98
:1057B0001000002042B110B50B491046144600F00D
:1057C000E3FA18B9094810BD084870470749204650
:1057D00000F0DAFA0028F5D00549204600F0D4FAA6
:1057E0000028EFD0002010BDCC920108C89201081B
:1057F00094920108014B93F8280170475408002047
:1058000041B110B50C4620460A4900F0BDFA18B95E
:10581000094810BD084870470749204600F0B4FA0F
:105820000028F5D00549204600F0AEFA0028EFD058
:10583000002010BDCC920108C89201089492010882
:1058400010B4034CD4F8E440A4465DF8044B604720
:105850005408002082B049B15AB16BB113780B6083
:105860001278101E18BF012002B0704701A9002A4B
:10587000F3D1104602B070476FF00100F4E700BFAB
:1058800088420DD98B1883420AD900EB020CBAB1B9
:10589000624613F801CD02F801CD9942F9D1704763
:1058A0000F2A0ED8034602F1FF3C4AB10CF1010C5D
:1058B000013B8C4411F8012B03F8012F6145F9D10C
:1058C000704740EA01039B0750D1A2F1100370B565
:1058D00001F1200C23F00F0501F1100E00F110046E
:1058E000AC441B095EF8105C44F8105C5EF80C5C7C
:1058F00044F80C5C5EF8085C44F8085C5EF8045CF4
:1059000044F8045C0EF1100EE64504F11004E9D1F0
:10591000013312F00C0F01EB031102F00F0400EB46
:10592000031327D0043C24F003064FEA940C1E44D2
:105930001C1F8E465EF8045B44F8045FB442F9D144
:105940000CF1010402F0030203EB840301EB840178
:1059500002F1FF3C4AB10CF1010C013B8C4411F8FF
:10596000012B03F8012F6145F9D170BD02F1FF3C15
:1059700003469BE72246EBE72DE9F84F1646002940
:1059800000F09F8006F10B0507460C46FBF72AFA4C
:10599000162D5FD810252A46AE4260D854F804EC84
:1059A0002EF00308A4F10809904509EB080A63DA10
:1059B000C24BDAF804009968514500F09A8020F053
:1059C000010353445B68DB076FD420F0030008EB4E
:1059D0000003934249DA1EF0010F11D154F8083C3C
:1059E000A9EB030BDBF8041021F003010844404449
:1059F000904280F21A8108EB0103934280F2ED801D
:105A000031463846FAF74AFE0646E8B154F8043CF7
:105A100023F001034B44A0F10802934200F0D5802B
:105A2000A8F10402242A00F2FC80132A216800F263
:105A3000AE800346224619605168596092689A60A8
:105A400021463846FEF7D2F83846FBF7D1F9304602
:105A5000BDE8F88F25F00705002D2A469CDA0C23B7
:105A60003B6000263046BDE8F88FDAE9021298461E
:105A7000CA6009EB030A9160D9F80430A8EB05026B
:105A80000F2A03F0010321D848EA0303C9F80430C0
:105A9000DAF8043043F00103CAF8043038462646E9
:105AA000FBF7A6F93046BDE8F88F1EF0010FA7D12D
:105AB00054F8083CA9EB030BDBF8041021F00301B8
:105AC00099E7BDE8F84F1146FAF7E8BD09EB050183
:105AD0002B4342F00102C9F804304A60DAF804307E
:105AE00043F001030831CAF804303846FEF77EF867
:105AF000D4E720F0030008EB000105F1100C61452C
:105B000050DA1EF0010F7FF47BAF54F8081CA9EBAC
